:060000000A128A11122809
:10000800FE00030EF8000408F9000A08FA0083123B
:1000180003137F08FB000A128A11E42B0A128A15BF
:10002800EE2AFF1B1F2883137F1883170008840AF2
:100038000319FF0A080000308A000408840A8207AE
:100048000034013400340A34003464340034E834B1
:100058000334103427345334453441345434203471
:10006800423445344C34543420344C344F344334C3
:100078004B342E342E34003445344E34473449340E
:100088004E34473420344F344E342E342134003427
:100098006E346F347434203466346F3475346E348F
:1000A80064342E342E34003467347034733420347E
:1000B8007334613474346C346934743465340034A2
:1000C800203420344634553445344C343A342034C2
:1000D8002034203400345734413452344E344934B7
:1000E8004E3447342E342E342134003443344F34C4
:1000F8004C344C344934533449344F344E343A3404
:100108000034543445344D34503445345234543426
:10011800553452344534003450344C345A34203435
:1001280049344E3453344534523454340034423410
:100138004C34413443344B34203442344F345834F3
:1001480000347234653463346F3476346534723411
:10015800793400344B3445344C34543452344F34AD
:100168004E3400342534643420342034003441348F
:100178005434453430340034523450344D343A34E5
:100188000034253464342034433400340A340D34C4
:10019800003441345434003483120313E101E20182
:1001A800E301DF01E0018316031388010713071138
:1001B80087178614061406118312031306110B16EB
:1001C8008B10831603130C14831203130C108B1358
:1001D8000B170C13831603130C178C1683120313B7
:1001E8008C1207308F00CF308E00303090000A120A
:1001F8008A157A240A128A110A128A1599220A1271
:100208008A110A128A15A6220A128A110A128A1556
:100218008E220A128A110A128A15B7220A128A1124
:1002280080300A128A15C9230A128A11773083127C
:100238000313A3008030A4000A128A1594230A121B
:100248008A11C0300A128A15C9230A128A118A3003
:1002580083120313A3008030A4000A128A15942382
:100268000A128A118B1738290130831603132606C0
:100278002704031D40294129042B831203138618E0
:10028800462947298C2983160313B001B10183122B
:100298000313101083160313A601A70101300A12D5
:1002A8008A15C9230A128A1180300A128A15C923AD
:1002B8000A128A114B3083120313A3008030A40062
:1002C8000A128A1594230A128A1180300A128A1592
:1002D800C9230A128A116C3083120313A3008030D9
:1002E800A4000A128A1594230A128A11C0300A122D
:1002F8008A15C9230A128A110B3083120313A3002B
:100308008030A4000A128A1594230A128A11042B39
:1003180001300A128A15C9230A128A1180300A127A
:100328008A15C9230A128A111C3083120313A300E9
:100338008030A4000A128A1594230A128A11013007
:100348000A128A15C9230A128A1183300A128A15D9
:10035800C9230A128A11403083120313A300803084
:10036800A4000A128A1594230A128A119230831261
:100378000313DC005C08AE008316031329088312FC
:100388000313B001B007831603132808831203135D
:10039800AF01AF0764300A128A1163250A128A1165
:1003A800C6300A128A15C9230A128A1164308312C8
:1003B8000313A3000030A4000A128A1594230A121A
:1003C8008A1101300A128A15C9230A128A11823049
:1003D8000A128A15C9230A128A116130831203137B
:1003E800A3008030A4000A128A1594230A128A11E5
:1003F800643083120313A2000030A3008316031392
:100408003B0883120313A101A107831603133A08BB
:1004180083120313A001A0070A128A153C230A12AB
:100428008A11831203132108B701B7072008B60100
:10043800B6070A128A1568230A128A11831203134F
:100448003608BF003708C0003808C1002930BC0092
:100458009C30BD004030BE000A128A1163260A1281
:100468008A11831203133C08CF003D08D0003E08D0
:10047800D1000030CC008030CD004430CE000A12CC
:100488008A1567260A128A11831203134C08A800DA
:100498004D08A9004E08AA000A128A1151270A120B
:1004A8008A11831203132908EF01EF072808EE01C8
:1004B800EE07A130DC005C08AE006F08B001B007A1
:1004C8006E08AF01AF0764300A128A1163250A1259
:1004D8008A11C6300A128A15C9230A128A11643091
:1004E80083120313A3000030A4000A128A15942370
:1004F8000A128A1101300A128A15C9230A128A11AE
:1005080082300A128A15C9230A128A1156308312B8
:100518000313A3008030A4000A128A1594230A1238
:100528008A11923083120313DC005C08AE00831634
:100538000313250883120313B001B00783160313AE
:10054800240883120313AF01AF0764300A128A111B
:1005580063250A128A11C6300A128A15C9230A129B
:100568008A11643083120313A3000030A4000A1216
:100578008A1594230A128A1101300A128A15C9238E
:100588000A128A1182300A128A15C9230A128A119C
:100598009C3083120313A3008030A4000A128A152A
:1005A80094230A128A11923083120313DC005C0828
:1005B800AE0083160313330883120313B001B00788
:1005C80083160313320883120313AF01AF07643095
:1005D8000A128A1163250A128A11C6300A128A156C
:1005E800C9230A128A11643083120313A30000304E
:1005F800A4000A128A1594230A128A11042B042BC8
:1006080001308316031336063704031D0C2B0D2BFC
:10061800102BB601B701102B23082204031D152B3C
:10062800162B222B003083120313A0000030A100E8
:100638000A128A154C250A128A11222B01308316B8
:1006480003132E062F04031D2A2B2B2B472B0130B7
:100658000A128A15C9230A128A1180300A128A15C9
:10066800C9230A128A11813083120313A300803030
:10067800A4000A128A1594230A128A1183160313F6
:10068800AE01AF01472B01302A062B04031D4D2B69
:100698004E2B3829C83083120313DC005C08A000F5
:1006A800BE30DD005D08A10090300A128A152F27A0
:1006B8000A128A1101308312031320062104031D34
:1006C800662B672BA22B01300A128A15C9230A123E
:1006D8008A1180300A128A15C9230A128A11BE307B
:1006E80083120313A3000030A4000A128A1594236E
:1006F8000A128A11C0300A128A15C9230A128A11ED
:10070800C83083120313A3000030A4000A128A150C
:1007180094230A128A1183160313AA01AB01063027
:1007280083120313DE000E30DD00B030DC00DC0B7A
:100738009B2BDD0B9B2BDE0B9B2BCB2B01300A124B
:100748008A15C9230A128A1180300A128A15C92308
:100758000A128A11343083120313A3008030A400D4
:100768000A128A1594230A128A11C0300A128A15AD
:10077800C9230A128A11283083120313A300803078
:10078800A4000A128A1594230A128A11CB2B831605
:100798000313AA01AB010B3083120313DE001C30D4
:1007A800DD006330DC00DC0BD72BDD0BD72BDE0B39
:1007B800D72B64003829382938290A128A111228B7
:1007C8008B1CE72BE82B082C831603132708260419
:1007D800031DEF2BF02BFD2BB601B7010130A6004E
:1007E8000030A700B001B1018312031310148B105D
:1007F800082C013083160313B0070318B10A003020
:10080800B1078B10082C082C83120C1C0C2C0D2CF7
:10081800D42C07308F00CF308E000C107630831622
:10082800031338063904031D1A2C1B2C252CB00180
:10083800B101B801B901A601A70183120313101071
:10084800252C02308316031334063504031D2D2C82
:100858002E2C542C0430831203138606831603139C
:10086800B401B5013108F101F1073008F001F007D2
:100878007630F2000030F3000A128A1512230A12A9
:100888008A11710883160313B301B3077008B20104
:10089800B2070130B6000030B700B001B101542CE6
:1008A8000130B8070318B90A0030B9070130B40796
:1008B8000318B50A0030B507D42CD42CFC01FD016F
:1008C80083121E08F600F7017608FC007708FD0081
:1008D8007D08F7007C08F6000230FF000310F60DD3
:1008E800F70DFF0B722C7608FC007708FD007C08DA
:1008F800831603131E04FC007D08FD003D08463ADC
:10090800031D872C882C9E2C7D08A901A9077C082B
:10091800A801A807A201A301BD01831203130C13A8
:100928000130F0000030F1000A128A1500250A1281
:100938008A11D42C831603133D08543A031DA52CA1
:10094800A62CBC2C7D08BB01BB077C08BA01BA07E2
:10095800A201A301BD01831203130C130230F0009E
:100968000030F1000A128A1500250A128A11D42CC7
:10097800831603133D08433A031DC32CC42CD42CFF
:100988007D08A501A5077C08A401A407A201A3016D
:10099800BD01831203130C13D42CD42CD42CD42CC7
:1009A800831203130C1BD92CDA2C622C522D522DD6
:1009B8001819DF2CE02CE42C981CE32CE42CE82CF0
:1009C800181198108C12522D8C121A08F6007608FD
:1009D80083160313BC003C08243A031DF42CF52CA1
:1009E800082DAC01AD013C08F6002C08903E8400AF
:1009F8007608831780000130AC070318AD0A003071
:100A0800AD07D201D301522D3C082A3A03190D2D06
:100A18000E2D232D53085204031D132D142D232DA1
:100A28003C08F6002C08903E840076088317800066
:100A38000130AC070318AD0A0030AD07522D3C0851
:100A48002A3A031D282D292D422D3C08F6002C0892
:100A5800903E84007608831780000130AC070318A5
:100A6800AD0A0030AD07AC01AD010130D200003055
:100A7800D3000130AA000030AB00522D3C08403AA8
:100A8800031D472D482D522D0130AE000030AF0018
:100A9800522D522D522D522D522D522D83128C1A19
:100AA800562D572DDC2C582D7B08FF007A088A001C
:100AB80079088400780E8300FE0E7E0E09008312EA
:100AC8000313BB002F30B1003108B400492E3C0895
:100AD800253A0319702D712D7D2D3C08B1003B0876
:100AE80084003108831380000130B1003108BB074E
:100AF800492EB501842D5D2E992D992D492E992DBC
:100B08000130AE07FF302E0784000A128A111F2019
:100B18000A128A11BC00003A03195D2E643A0319BF
:100B2800992D0D3A0319992D492E34088400831301
:100B38000008B700840A0008B8000230B100310884
:100B4800B407B81FA82DA92DB32D0330B100310863
:100B5800B504B709B809B70A0319B80AB32DBC0117
:100B68000314BC0D3C08053A031DBB2DBC2DBE2D3E
:100B7800E62DE62D3C08B1003107013E84000A123B
:100B88008A111F200A128A11B2000A128A111F2024
:100B98000A128A11B30033083802031DD52D320812
:100BA80037020318D82DD92DDB2DE62DE62D01307F
:100BB800B1003108BC073C08053A031DE42DE52DBA
:100BC800BE2DE62D350803390319EB2DEC2DF82D34
:100BD8002D30B1003B0884003108831380000130B8
:100BE800B1003108BB07F82D3C08B1003108B60048
:100BF8003D2E0A30A8000030A9003608B1003107A0
:100C0800013E84000A128A111F200A128A11A000CC
:100C18000A128A111F200A128A11A1003808A3019A
:100C2800A3073708A201A2070A128A159A250A12F1
:100C38008A11831203132108AB01AB072008AA010C
:100C4800AA070A128A15BA240A128A1183120313F0
:100C58002808303EB2003208BC003C08B1003B080E
:100C680084003108831380000130B1003108BB07CC
:100C78003D2EFF30B1003108B6073608FF3A031D94
:100C8800462E472EFD2D492E492E0130AE07FF3046
:100C98002E0784000A128A111F200A128A11B10035
:100CA8003108BC00BC08031D5A2E5B2E6B2D5D2E2F
:100CB8005D2E3B08840083138001622E0800831296
:100CC80003133C08C2003D08C3003E08C4000310DB
:100CD800430D440DC5004508C600C608031D752E02
:100CE800762E7E2E0030BC000030BD000030BE00E5
:100CF800502F502F3F08C2004008C3004108C400CD
:100D08000310430D440DC5004508CB00CB08031D57
:100D18008E2E8F2E972E0030BC000030BD00003084
:100D2800BE00502F502F4B087B3EC2004208C6071A
:100D38003C08C2003D08C3003E08C4001030031040
:100D4800C40CC30CC20CFF3E031DA32E4208C500F1
:100D58004508CB003F08C2004008C3004108C40052
:100D680010300310C40CC30CC20CFF3E031DB52E7B
:100D78004208C5004508CB068030C2004208CB05B2
:100D8800BD17C017FF30BF05FF30C0050030C105D3
:100D98000030C7000030C8000030C9000730C2006A
:100DA8004208CA00D72E3C1CDA2EDB2EEC2E3F0858
:100DB800C707400803110318400A0319E42EC8079F
:100DC800410803110318410A0319EB2EC907EC2E39
:100DD80001300310BE0CBD0CBC0CFF3E031DED2EF4
:100DE80001300310BF0DC00DC10DFF3E031DF52ED0
:100DF8000130CA02031D012F022FD72E032F0930FD
:100E0800C2004208CA00082F3C1C0B2F0C2F1D2FB4
:100E18003F08C707400803110318400A0319152F94
:100E2800C807410803110318410A03191C2FC907F1
:100E38001D2F01300310BE0CBD0CBC0CFF3E031D62
:100E48001E2F01300310C90CC80CC70CFF3E031D30
:100E5800262F0130CA02031D322F332F082F342FBB
:100E68004708A0004808A1004908A2004608C20097
:100E78004208A3004B08C3004308A4000A128A15BD
:100E8800EA250A128A11831203132008BC002108DC
:100E9800BD002208BE00502F080083120313280843
:100EA800AC002908AD002A08AE0003102D0D2E0D48
:100EB800AF002F08B500B508031D632F642F6E2FF0
:100EC8000030AB000030AA000030A9000030A800B4
:100ED800F62FF62F2808AC002908AD002A08AE0026
:100EE80017300310AE0CAD0CAC0CFF3E031D752F74
:100EF8002C08AF002F08B000A917FF30A805FF3055
:100F0800A9050030AA052808B1002908B2002A0856
:100F1800B300B4018E30B502B51F932F942FB92FAB
:100F28003508803A8F3E03189A2F9B2FA62F003042
:100F3800AB000030AA000030A9000030A800F62F4E
:100F4800F62FA62F01300310B40CB30CB20CB10C61
:100F5800FF3E031DA72F0130AC002C08B507031D69
:100F6800B62FB72FA62FDD2FDD2F18303502031C23
:100F7800BE2FBF2FD62F0030AB000030AA000030A4
:100F8800A9000030A800F62FF62FD62F0130AC00AC
:100F98000310B10DB20DB30DB40DAC0BCC2F013055
:100FA800B502D62FB508031DDA2FDB2FCA2FDD2F88
:100FB800DD2F3008031DE12FED2FB109B209B30968
:100FC800B409B10A0319B20A0319B30A0319B40A16
:100FD800ED2F3408AB003308AA003208A900310805
:100FE800A800F62F080064008001840A040603198B
:060FF80000340406F82F8E
:10151800013400340130831203139F008316031330
:101528009F01831203131F14080083160313071661
:10153800871563309300803094002830831203139A
:10154800940008002430831603139800193099007A
:101558009030831203139800831603138C1683129A
:10156800031318160800A9300A128A153D240A1216
:101578008A15A6300A128A153D240A128A15973050
:101588000A128A153D240A128A15A6300A128A15EB
:101598003D240A128A15080083120313A200981723
:1015A80083160313981283120313220899001A3022
:1015B800A100F830A000A00BDF2AA10BDF2A6400ED
:1015C800831603139816E82A981CEB2AEC2AE82AB3
:1015D800ED2A08008313A0308400D2300A128A1141
:1015E800F7270A128A15831790308400C2300A122E
:1015F8008A11F7270A128A15831603130A128A1505
:101608008C220A128A15D2000A128A158D220A1211
:101618008A15D30083010A128A11D028F401F50132
:10162800152B701C182B192B1F2B7208F407031885
:10163800F50A7308F50701300310F20DF30DFF3EAC
:10164800031D202B01300310F10CF00CFF3E031D8D
:10165800272B71087004031D322B332B152B342BC9
:101668007508F101F1077408F001F0073B2B080039
:1016780083120313A401A501412B201C442B452BE5
:101688004B2B2208A4070318A50A2308A507013035
:101698000310A20DA30DFF3E031D4C2B01300310B8
:1016A800A10CA00CFF3E031D532B21082004031D91
:1016B8005E2B5F2B412B602B2508A101A107240875
:1016C800A001A007672B080083120313BB01B71FF3
:1016D8006E2B6F2B782BB609B709B60A0319B70A10
:1016E800BB010314BB0D782B3608A0003708A100F6
:1016F800A2018E30B9003908A3003B08BA003A08A5
:10170800A4000A128A15EA250A128A1583120313FD
:101718002008B6002108B7002208B800932B08005B
:10172800B72B831203132408FF00230884000A122E
:101738008A1115200A128A150A128A1503240A1218
:101748008A15013083120313A3070318A40A003073
:10175800A4071A30A600F830A500A50BB12BA60BDC
:10176800B12B6400B72B831203132408FF0023084E
:1017780084000A128A1115200A128A150038031DDE
:10178800C62BC72B952BC82B080083120313A20066
:10179800220888008811081188141A30A100F8302E
:1017A800A000A00BD52BA10BD52B6400831203132B
:1017B80088101A30A100F830A000A00BE12BA10B73
:1017C800E12B6400831203132208A00003300310E6
:1017D800A00DFF3E031DEB2B0310200D8800881180
:1017E800081188141A30A100F830A000A00BFA2BB9
:1017F800A10BFA2B640083120313881008008312CC
:101808000313A200220888008811081588141A30CA
:10181800A100F830A000A00B0F2CA10B0F2C640026
:101828008312031388101A30A100F830A000A00B0F
:101838001B2CA10B1B2C6400831203132208A0008D
:1018480003300310A00DFF3E031D252C0310200DAF
:1018580088008811081588141A30A100F830A000F3
:10186800A00B342CA10B342C6400831203138810B2
:10187800080083120313A5001A30A400F830A3004F
:10188800A30B442CA40B442C64006A2C831203136E
:10189800250884000A128A111F200A128A150A12C2
:1018A8008A15D0220A128A151A3083120313A4004B
:1018B800F830A300A30B5E2CA40B5E2C640001304F
:1018C80083120313A3002308A5076A2C83120313AA
:1018D800250884000A128A111F200A128A15003866
:1018E800031D772C782C4A2C792C080030300A12EA
:1018F8008A15C9230A128A1530300A128A15C92393
:101908000A128A1530300A128A15C9230A128A1552
:1019180020300A128A15C9230A128A158312031362
:1019280088141A30A400F830A300A30B992CA40B38
:10193800992C640083120313881028300A128A1520
:10194800C9230A128A150C300A128A15C9230A12E9
:101958008A1506300A128A15C9230A128A15013017
:101968000A128A15C9230A128A150800831203135A
:10197800290828040319C12CC22CF82CAD01031422
:10198800AD0DD22C01300310A80DA90DFF3E031D8B
:10199800C72C0130AC002C08AD07D22CA91FD52CC0
:1019A800D62CC62CD82CD82C29082B02031DDE2CAB
:1019B80028082A02031CE12CE22CE92C2808AA0298
:1019C8002908031CAB03AB02E92C01300310A90C56
:1019D800A80CFF3E031DEA2C0130AD02031DF52CB7
:1019E800F62CD82CF82CF82C2B08A901A9072A08C2
:1019F800A801A807FF2C0800F401F50183160313BA
:101A08009E01831203139E01272D83129F014630E6
:101A1800F200720883160313BD00372D08308312B5
:101A28009F005430F200720883160313BD00372D4F
:101A3800113083129F004330F2007208831603139B
:101A4800BD00372D372D7108003A03192C2D372D7D
:101A58007008003A0319092D013A0319122D033AA7
:101A680003191C2D372D83121F141A30F300F83078
:101A7800F200F20B3D2DF30B3D2D6400831203138E
:101A88001F15013083160313A2000030A3000800BD
:101A980083120313A401A501831603139E01831265
:101AA80003139E01742D9F014630A200220883165D
:101AB8000313BD00852D083083129F005430A20007
:101AC800220883160313BD00852D113083129F0051
:101AD8004330A200220883160313BD00852D852DEF
:101AE80083122108003A03197A2D852D2008003A1F
:101AF8000319572D013A03195F2D033A0319692D6C
:101B0800852D83121F141A30A300F830A200A20BEF
:101B18008B2DA30B8B2D6400831203131F1501302B
:101B280083160313A2000030A300080083120313D6
:101B3800A501A601210820040319A32DA42DE22D37
:101B4800A7010314A70DB42D01300310A00DA10D9A
:101B5800FF3E031DA92D0130A4002408A707B42DBA
:101B6800A11FB72DB82DA82DBA2DBA2D01300310FD
:101B7800A50DA60DFF3E031DBB2D21082302031D45
:101B8800C72D20082202031CCA2DCB2DD32D2008D7
:101B9800A2022108031CA303A3022514D32D01309C
:101BA8000310A10CA00CFF3E031DD42D0130A70289
:101BB800031DDF2DE02DBA2DE22DE22D2608A1010F
:101BC800A1072508A001A007E92D08008312031327
:101BD8002308031DF02DF82D220821042004031DDD
:101BE800F62DF72D0E2EF82D0030A0000030A100A4
:101BF8000030A200662E662E0E2E0130A5002508A4
:101C0800A30701300310A20CA10CA00CFF3E031D7A
:101C1800062E0E2EFE302205031D132E142E012E25
:101C28002C2E2C2E0130A5002508A3070130A00773
:101C3800003003180130A107003003180130A20753
:101C480001300310A20CA10CA00CFF3E031D252E91
:101C5800FF302205031D312E322E162E3F2E3F2E29
:101C68000130A30201300310A00DA10DA20DFF3E0B
:101C7800031D372E3F2EA11F422E432E342E23182C
:101C8800462E472E4D2EFF30A0057F30A105FF3090
:101C9800A2050310A30C2308A500A601A701103074
:101CA8000310A50DA60DA70DFF3E031D542E2508F4
:101CB800A0042608A1042708A2042408031D652EF1
:101CC800662EA2170800831203134F08D20050088B
:101CD800D3005108D4000310530D540DD5005508F6
:101CE800DA00DA08031D792E7A2E822E0030CC0015
:101CF8000030CD000030CE002E2F2E2F4C08D20001
:101D08004D08D3004E08D4000310530D540DD500D0
:101D18005508DB00DB08031D922E932E9B2E003006
:101D2800CC000030CD000030CE002E2F2E2F0030FA
:101D3800D7000030D8000030D90089305B07D200C6
:101D48005208DA024F08D2005008D3005108D400D4
:101D580010300310D40CD30CD20CFF3E031DAD2E53
:101D68005208D5005508DB004C08D2004D08D300B6
:101D78004E08D40010300310D40CD30CD20CFF3E04
:101D8800031DBF2E5208D5005508DB068030D2004F
:101D98005208DB05D017FF30CF05FF30D0050030E3
:101DA800D105CD17FF30CC05FF30CD050030CE056D
:101DB8001830D2005208D600E12E01300310D70D9A
:101DC800D80DD90DFF3E031DE22E4E085102031D0A
:101DD800F32E4D085002031DF32E4C084F02031C2E
:101DE800F62EF72E032F4C08CF024D08031C4D0F7B
:101DF800D0024E08031C4E0AD1025714032F01309B
:101E08000310CF0DD00DD10DFF3E031D042F01305F
:101E1800D602031D102F112FE12E122F5708A000F4
:101E28005808A1005908A2005A08D2005208A30075
:101E38005B08D3005308A4000A128A15EA250A127F
:101E48008A15831203132008CC002108CD0022082C
:101E5800CE002E2F080083120313A700A301A401AC
:101E6800A501A601F32F2708840083170008243A48
:101E7800031D3F2F402F452F0130A3000030A40041
:101E8800452F270884000008473A031D4C2F4D2F83
:101E9800522F0230A3000030A400522F27088400DC
:101EA8000008523A031D592F5A2F5F2F0330A30001
:101EB8000030A4005F2F2708840000084D3A031D56
:101EC800662F672F6C2F0430A3000030A4006C2FFE
:101ED800270884000008433A031D732F742F782FB6
:101EE8000530A3000030A400053023062404031D98
:101EF8007E2F7F2F8D2F2708840000082C3A031D82
:101F0800862F872F8D2F0130A5070318A60A0030CA
:101F1800A607023025062604031D932F942F9E2F13
:101F2800270884000008563A031D9B2F9C2F9E2FDC
:101F3800FC2FFC2F033025062604031DA42FA52FF4
:101F4800BC2F2708840000082C3A0319AC2FAD2FAA
:101F5800BC2F270884000008A2002008840022085B
:101F6800831380000130A2002208A007BC2FBC2FD9
:101F7800053025062604031DC22FC32FDB2F270893
:101F88008400831700082C3A0319CB2FCC2FDB2FA2
:101F9800270884000008A20021088400220883136F
:101FA80080000130A2002208A107DB2FDB2F2708C1
:101FB8008400831700082A3A031DE32FE42FEE2F2D
:101FC800A501A601A301A4010130A0000030A100D1
:101FD800FF2FFF2F0130A2002208A707F32F2708A1
:101FE800840083178008031DFA2FFB2F372FFC2F3F
:081FF800A001A101FF2F080068
:00000001FF
